{
  "contractName": "DynamicGridFee",
  "abi": [
    {
      "constant": false,
      "inputs": [],
      "name": "kill",
      "outputs": [],
      "payable": false,
      "stateMutability": "nonpayable",
      "type": "function"
    },
    {
      "constant": false,
      "inputs": [
        {
          "name": "addr",
          "type": "address"
        }
      ],
      "name": "setOliOrigin",
      "outputs": [],
      "payable": false,
      "stateMutability": "nonpayable",
      "type": "function"
    },
    {
      "constant": false,
      "inputs": [
        {
          "name": "_address",
          "type": "address"
        },
        {
          "name": "_fee",
          "type": "uint8[]"
        }
      ],
      "name": "set_minmaxgfee",
      "outputs": [],
      "payable": false,
      "stateMutability": "nonpayable",
      "type": "function"
    },
    {
      "constant": false,
      "inputs": [
        {
          "name": "_addr",
          "type": "address"
        },
        {
          "name": "_amount",
          "type": "uint16"
        }
      ],
      "name": "set_cktcamount",
      "outputs": [],
      "payable": false,
      "stateMutability": "nonpayable",
      "type": "function"
    },
    {
      "constant": false,
      "inputs": [
        {
          "name": "_addr",
          "type": "address"
        },
        {
          "name": "_amount",
          "type": "uint64"
        }
      ],
      "name": "set_cktramount",
      "outputs": [],
      "payable": false,
      "stateMutability": "nonpayable",
      "type": "function"
    },
    {
      "constant": false,
      "inputs": [
        {
          "name": "_tid",
          "type": "uint32"
        }
      ],
      "name": "set_dgridFee",
      "outputs": [],
      "payable": false,
      "stateMutability": "nonpayable",
      "type": "function"
    },
    {
      "constant": false,
      "inputs": [
        {
          "name": "_addr",
          "type": "address"
        },
        {
          "name": "_amount",
          "type": "uint16"
        }
      ],
      "name": "set_trafocamount",
      "outputs": [],
      "payable": false,
      "stateMutability": "nonpayable",
      "type": "function"
    },
    {
      "constant": false,
      "inputs": [
        {
          "name": "_addr",
          "type": "address"
        },
        {
          "name": "_amount",
          "type": "uint16"
        }
      ],
      "name": "set_traforamount",
      "outputs": [],
      "payable": false,
      "stateMutability": "nonpayable",
      "type": "function"
    },
    {
      "constant": false,
      "inputs": [
        {
          "name": "_tid",
          "type": "uint32"
        }
      ],
      "name": "set_tgridFee",
      "outputs": [],
      "payable": false,
      "stateMutability": "nonpayable",
      "type": "function"
    },
    {
      "constant": true,
      "inputs": [
        {
          "name": "_tid",
          "type": "uint32"
        }
      ],
      "name": "get_trafoPeakLoad",
      "outputs": [
        {
          "name": "",
          "type": "uint16"
        }
      ],
      "payable": false,
      "stateMutability": "view",
      "type": "function"
    },
    {
      "constant": true,
      "inputs": [
        {
          "name": "_addr",
          "type": "address"
        }
      ],
      "name": "get_trafoAmount",
      "outputs": [
        {
          "name": "",
          "type": "int16"
        }
      ],
      "payable": false,
      "stateMutability": "view",
      "type": "function"
    },
    {
      "constant": true,
      "inputs": [
        {
          "name": "_tid",
          "type": "uint32"
        }
      ],
      "name": "get_trafoLoad",
      "outputs": [
        {
          "name": "",
          "type": "uint8"
        }
      ],
      "payable": false,
      "stateMutability": "view",
      "type": "function"
    },
    {
      "constant": true,
      "inputs": [
        {
          "name": "_addr",
          "type": "address"
        }
      ],
      "name": "get_dGFee",
      "outputs": [
        {
          "name": "",
          "type": "uint8"
        }
      ],
      "payable": false,
      "stateMutability": "view",
      "type": "function"
    },
    {
      "constant": true,
      "inputs": [
        {
          "name": "_addr",
          "type": "address"
        }
      ],
      "name": "get_tGFee",
      "outputs": [
        {
          "name": "",
          "type": "uint8"
        }
      ],
      "payable": false,
      "stateMutability": "view",
      "type": "function"
    },
    {
      "constant": true,
      "inputs": [
        {
          "name": "_tid",
          "type": "uint32"
        },
        {
          "name": "_index",
          "type": "uint8"
        }
      ],
      "name": "get_gridFee",
      "outputs": [
        {
          "name": "",
          "type": "uint8"
        }
      ],
      "payable": false,
      "stateMutability": "view",
      "type": "function"
    },
    {
      "constant": true,
      "inputs": [
        {
          "name": "_tid",
          "type": "uint32"
        },
        {
          "name": "_index",
          "type": "uint8"
        }
      ],
      "name": "get_cktAmount",
      "outputs": [
        {
          "name": "",
          "type": "int16"
        }
      ],
      "payable": false,
      "stateMutability": "view",
      "type": "function"
    }
  ],
  "bytecode": "0x6060604052336000806101000a81548173ffffffffffffffffffffffffffffffffffffffff021916908373ffffffffffffffffffffffffffffffffffffffff160217905550612394806100536000396000f3006060604052600436106100e6576000357c0100000000000000000000000000000000000000000000000000000000900463ffffffff168063025c6d6b146100eb5780630d8ca9421461013a578063103fecb714610180578063238a7113146101b957806336b8b784146101fc57806341c0e1b51461024257806357b1927614610257578063910ab88714610280578063bf2dc072146102c5578063c194115c14610314578063c2106c8b14610367578063c2b4b528146103e0578063c3d9261b14610426578063c687df6814610479578063f2e777f7146104a2578063f6ccedd9146104ee575b600080fd5b34156100f657600080fd5b61011e600480803563ffffffff1690602001909190803560ff16906020019091905050610541565b604051808260ff1660ff16815260200191505060405180910390f35b341561014557600080fd5b61017e600480803573ffffffffffffffffffffffffffffffffffffffff1690602001909190803561ffff1690602001909190505061066e565b005b341561018b57600080fd5b6101b7600480803573ffffffffffffffffffffffffffffffffffffffff169060200190919050506107a0565b005b34156101c457600080fd5b6101e0600480803563ffffffff169060200190919050506107e4565b604051808260ff1660ff16815260200191505060405180910390f35b341561020757600080fd5b610240600480803573ffffffffffffffffffffffffffffffffffffffff1690602001909190803561ffff1690602001909190505061081a565b005b341561024d57600080fd5b610255610a42565b005b341561026257600080fd5b61027e600480803563ffffffff16906020019091905050610ad3565b005b341561028b57600080fd5b6102a7600480803563ffffffff16906020019091905050611009565b604051808261ffff1661ffff16815260200191505060405180910390f35b34156102d057600080fd5b6102f8600480803563ffffffff1690602001909190803560ff169060200190919050506111bc565b604051808260010b60010b815260200191505060405180910390f35b341561031f57600080fd5b61034b600480803573ffffffffffffffffffffffffffffffffffffffff1690602001909190505061120a565b604051808260ff1660ff16815260200191505060405180910390f35b341561037257600080fd5b6103de600480803573ffffffffffffffffffffffffffffffffffffffff1690602001909190803590602001908201803590602001908080602002602001604051908101604052809392919081815260200183836020028082843782019150505050505091905050611413565b005b34156103eb57600080fd5b610424600480803573ffffffffffffffffffffffffffffffffffffffff1690602001909190803561ffff16906020019091905050611517565b005b341561043157600080fd5b61045d600480803573ffffffffffffffffffffffffffffffffffffffff16906020019091905050611649565b604051808260ff1660ff16815260200191505060405180910390f35b341561048457600080fd5b6104a0600480803563ffffffff16906020019091905050611936565b005b34156104ad57600080fd5b6104ec600480803573ffffffffffffffffffffffffffffffffffffffff1690602001909190803567ffffffffffffffff1690602001909190505061202b565b005b34156104f957600080fd5b610525600480803573ffffffffffffffffffffffffffffffffffffffff16906020019091905050612253565b604051808260010b60010b815260200191505060405180910390f35b600060036000600160009054906101000a900473ffffffffffffffffffffffffffffffffffffffff1673ffffffffffffffffffffffffffffffffffffffff16638ac8916c866000604051602001526040518263ffffffff167c0100000000000000000000000000000000000000000000000000000000028152600401808263ffffffff1663ffffffff168152602001915050602060405180830381600087803b15156105ec57600080fd5b6102c65a03f115156105fd57600080fd5b5050506040518051905073ffffffffffffffffffffffffffffffffffffffff1673ffffffffffffffffffffffffffffffffffffffff16815260200190815260200160002060008360ff1660ff16815260200190815260200160002060009054906101000a900460ff16905092915050565b8060056000600160009054906101000a900473ffffffffffffffffffffffffffffffffffffffff1673ffffffffffffffffffffffffffffffffffffffff166362f6b0ec866000604051602001526040518263ffffffff167c0100000000000000000000000000000000000000000000000000000000028152600401808273ffffffffffffffffffffffffffffffffffffffff1673ffffffffffffffffffffffffffffffffffffffff168152602001915050602060405180830381600087803b151561073857600080fd5b6102c65a03f1151561074957600080fd5b5050506040518051905063ffffffff1663ffffffff16815260200190815260200160002060008282829054906101000a900460010b0192506101000a81548161ffff021916908360010b61ffff1602179055505050565b80600160006101000a81548173ffffffffffffffffffffffffffffffffffffffff021916908373ffffffffffffffffffffffffffffffffffffffff16021790555050565b6000600260008363ffffffff1663ffffffff16815260200190815260200160002060009054906101000a900460ff169050919050565b8060046000600160009054906101000a900473ffffffffffffffffffffffffffffffffffffffff1673ffffffffffffffffffffffffffffffffffffffff166362f6b0ec866000604051602001526040518263ffffffff167c0100000000000000000000000000000000000000000000000000000000028152600401808273ffffffffffffffffffffffffffffffffffffffff1673ffffffffffffffffffffffffffffffffffffffff168152602001915050602060405180830381600087803b15156108e457600080fd5b6102c65a03f115156108f557600080fd5b5050506040518051905063ffffffff1663ffffffff1681526020019081526020016000206000600160009054906101000a900473ffffffffffffffffffffffffffffffffffffffff1673ffffffffffffffffffffffffffffffffffffffff16633befa275866000604051602001526040518263ffffffff167c0100000000000000000000000000000000000000000000000000000000028152600401808273ffffffffffffffffffffffffffffffffffffffff1673ffffffffffffffffffffffffffffffffffffffff168152602001915050602060405180830381600087803b15156109e057600080fd5b6102c65a03f115156109f157600080fd5b5050506040518051905060ff1660ff16815260200190815260200160002060008282829054906101000a900460010b0192506101000a81548161ffff021916908360010b61ffff1602179055505050565b6000809054906101000a900473ffffffffffffffffffffffffffffffffffffffff1673ffffffffffffffffffffffffffffffffffffffff163373ffffffffffffffffffffffffffffffffffffffff161415610ad1576000809054906101000a900473ffffffffffffffffffffffffffffffffffffffff1673ffffffffffffffffffffffffffffffffffffffff16ff5b565b610adc81611009565b61ffff166064600560008463ffffffff1663ffffffff16815260200190815260200160002060009054906101000a900460010b0261ffff16811515610b1d57fe5b04600260008363ffffffff1663ffffffff16815260200190815260200160002060006101000a81548160ff021916908360ff1602179055506106d6600560008363ffffffff1663ffffffff16815260200190815260200160002060009054906101000a900460010b60010b131515610cbd57600460036000600160009054906101000a900473ffffffffffffffffffffffffffffffffffffffff1673ffffffffffffffffffffffffffffffffffffffff16638ac8916c856000604051602001526040518263ffffffff167c0100000000000000000000000000000000000000000000000000000000028152600401808263ffffffff1663ffffffff168152602001915050602060405180830381600087803b1515610c3a57600080fd5b6102c65a03f11515610c4b57600080fd5b5050506040518051905073ffffffffffffffffffffffffffffffffffffffff1673ffffffffffffffffffffffffffffffffffffffff1681526020019081526020016000206000600460ff16815260200190815260200160002060006101000a81548160ff021916908360ff1602179055505b6106d6600560008363ffffffff1663ffffffff16815260200190815260200160002060009054906101000a900460010b60010b138015610d2d5750611194600560008363ffffffff1663ffffffff16815260200190815260200160002060009054906101000a900460010b60010b125b15610e6057600560036000600160009054906101000a900473ffffffffffffffffffffffffffffffffffffffff1673ffffffffffffffffffffffffffffffffffffffff16638ac8916c856000604051602001526040518263ffffffff167c0100000000000000000000000000000000000000000000000000000000028152600401808263ffffffff1663ffffffff168152602001915050602060405180830381600087803b1515610ddd57600080fd5b6102c65a03f11515610dee57600080fd5b5050506040518051905073ffffffffffffffffffffffffffffffffffffffff1673ffffffffffffffffffffffffffffffffffffffff1681526020019081526020016000206000600460ff16815260200190815260200160002060006101000a81548160ff021916908360ff1602179055505b611194600560008363ffffffff1663ffffffff16815260200190815260200160002060009054906101000a900460010b60010b121515610fc857600660036000600160009054906101000a900473ffffffffffffffffffffffffffffffffffffffff1673ffffffffffffffffffffffffffffffffffffffff16638ac8916c856000604051602001526040518263ffffffff167c0100000000000000000000000000000000000000000000000000000000028152600401808263ffffffff1663ffffffff168152602001915050602060405180830381600087803b1515610f4557600080fd5b6102c65a03f11515610f5657600080fd5b5050506040518051905073ffffffffffffffffffffffffffffffffffffffff1673ffffffffffffffffffffffffffffffffffffffff1681526020019081526020016000206000600460ff16815260200190815260200160002060006101000a81548160ff021916908360ff1602179055505b6000600560008363ffffffff1663ffffffff16815260200190815260200160002060006101000a81548161ffff021916908360010b61ffff16021790555050565b6000600160009054906101000a900473ffffffffffffffffffffffffffffffffffffffff1673ffffffffffffffffffffffffffffffffffffffff1663b36673af600160009054906101000a900473ffffffffffffffffffffffffffffffffffffffff1673ffffffffffffffffffffffffffffffffffffffff16638ac8916c856000604051602001526040518263ffffffff167c0100000000000000000000000000000000000000000000000000000000028152600401808263ffffffff1663ffffffff168152602001915050602060405180830381600087803b15156110ee57600080fd5b6102c65a03f115156110ff57600080fd5b50505060405180519050600080604051602001526040518363ffffffff167c0100000000000000000000000000000000000000000000000000000000028152600401808373ffffffffffffffffffffffffffffffffffffffff1673ffffffffffffffffffffffffffffffffffffffff1681526020018260ff16815260200192505050602060405180830381600087803b151561119a57600080fd5b6102c65a03f115156111ab57600080fd5b505050604051805190509050919050565b6000600460008463ffffffff1663ffffffff16815260200190815260200160002060008360ff1660ff16815260200190815260200160002060009054906101000a900460010b905092915050565b600060036000600160009054906101000a900473ffffffffffffffffffffffffffffffffffffffff1673ffffffffffffffffffffffffffffffffffffffff16638ac8916c600160009054906101000a900473ffffffffffffffffffffffffffffffffffffffff1673ffffffffffffffffffffffffffffffffffffffff166362f6b0ec876000604051602001526040518263ffffffff167c0100000000000000000000000000000000000000000000000000000000028152600401808273ffffffffffffffffffffffffffffffffffffffff1673ffffffffffffffffffffffffffffffffffffffff168152602001915050602060405180830381600087803b151561131357600080fd5b6102c65a03f1151561132457600080fd5b505050604051805190506000604051602001526040518263ffffffff167c0100000000000000000000000000000000000000000000000000000000028152600401808263ffffffff1663ffffffff168152602001915050602060405180830381600087803b151561139457600080fd5b6102c65a03f115156113a557600080fd5b5050506040518051905073ffffffffffffffffffffffffffffffffffffffff1673ffffffffffffffffffffffffffffffffffffffff1681526020019081526020016000206000600460ff16815260200190815260200160002060009054906101000a900460ff169050919050565b60008060009054906101000a900473ffffffffffffffffffffffffffffffffffffffff1673ffffffffffffffffffffffffffffffffffffffff163373ffffffffffffffffffffffffffffffffffffffff16141561151257600090505b81518160ff16101561151157818160ff1681518110151561148c57fe5b90602001906020020151600360008573ffffffffffffffffffffffffffffffffffffffff1673ffffffffffffffffffffffffffffffffffffffff16815260200190815260200160002060008360ff1660ff16815260200190815260200160002060006101000a81548160ff021916908360ff160217905550808060010191505061146f565b5b505050565b8060056000600160009054906101000a900473ffffffffffffffffffffffffffffffffffffffff1673ffffffffffffffffffffffffffffffffffffffff166362f6b0ec866000604051602001526040518263ffffffff167c0100000000000000000000000000000000000000000000000000000000028152600401808273ffffffffffffffffffffffffffffffffffffffff1673ffffffffffffffffffffffffffffffffffffffff168152602001915050602060405180830381600087803b15156115e157600080fd5b6102c65a03f115156115f257600080fd5b5050506040518051905063ffffffff1663ffffffff16815260200190815260200160002060008282829054906101000a900460010b0392506101000a81548161ffff021916908360010b61ffff1602179055505050565b600060036000600160009054906101000a900473ffffffffffffffffffffffffffffffffffffffff1673ffffffffffffffffffffffffffffffffffffffff16638ac8916c600160009054906101000a900473ffffffffffffffffffffffffffffffffffffffff1673ffffffffffffffffffffffffffffffffffffffff166362f6b0ec876000604051602001526040518263ffffffff167c0100000000000000000000000000000000000000000000000000000000028152600401808273ffffffffffffffffffffffffffffffffffffffff1673ffffffffffffffffffffffffffffffffffffffff168152602001915050602060405180830381600087803b151561175257600080fd5b6102c65a03f1151561176357600080fd5b505050604051805190506000604051602001526040518263ffffffff167c0100000000000000000000000000000000000000000000000000000000028152600401808263ffffffff1663ffffffff168152602001915050602060405180830381600087803b15156117d357600080fd5b6102c65a03f115156117e457600080fd5b5050506040518051905073ffffffffffffffffffffffffffffffffffffffff1673ffffffffffffffffffffffffffffffffffffffff16815260200190815260200160002060006005600160009054906101000a900473ffffffffffffffffffffffffffffffffffffffff1673ffffffffffffffffffffffffffffffffffffffff16633befa275866000604051602001526040518263ffffffff167c0100000000000000000000000000000000000000000000000000000000028152600401808273ffffffffffffffffffffffffffffffffffffffff1673ffffffffffffffffffffffffffffffffffffffff168152602001915050602060405180830381600087803b15156118f157600080fd5b6102c65a03f1151561190257600080fd5b505050604051805190500160ff1660ff16815260200190815260200160002060009054906101000a900460ff169050919050565b60008090505b600160009054906101000a900473ffffffffffffffffffffffffffffffffffffffff1673ffffffffffffffffffffffffffffffffffffffff16633befa275600160009054906101000a900473ffffffffffffffffffffffffffffffffffffffff1673ffffffffffffffffffffffffffffffffffffffff16638ac8916c856000604051602001526040518263ffffffff167c0100000000000000000000000000000000000000000000000000000000028152600401808263ffffffff1663ffffffff168152602001915050602060405180830381600087803b1515611a1f57600080fd5b6102c65a03f11515611a3057600080fd5b505050604051805190506000604051602001526040518263ffffffff167c0100000000000000000000000000000000000000000000000000000000028152600401808273ffffffffffffffffffffffffffffffffffffffff1673ffffffffffffffffffffffffffffffffffffffff168152602001915050602060405180830381600087803b1515611ac057600080fd5b6102c65a03f11515611ad157600080fd5b5050506040518051905060ff168160ff16101561202757610dac600460008463ffffffff1663ffffffff16815260200190815260200160002060008360ff1660ff16815260200190815260200160002060009054906101000a900460010b60010b131515611c6c57600160036000600160009054906101000a900473ffffffffffffffffffffffffffffffffffffffff1673ffffffffffffffffffffffffffffffffffffffff16638ac8916c866000604051602001526040518263ffffffff167c0100000000000000000000000000000000000000000000000000000000028152600401808263ffffffff1663ffffffff168152602001915050602060405180830381600087803b1515611be457600080fd5b6102c65a03f11515611bf557600080fd5b5050506040518051905073ffffffffffffffffffffffffffffffffffffffff1673ffffffffffffffffffffffffffffffffffffffff16815260200190815260200160002060006005840160ff1660ff16815260200190815260200160002060006101000a81548160ff021916908360ff1602179055505b610dac600460008463ffffffff1663ffffffff16815260200190815260200160002060008360ff1660ff16815260200190815260200160002060009054906101000a900460010b60010b138015611d0a5750612328600460008463ffffffff1663ffffffff16815260200190815260200160002060008360ff1660ff16815260200190815260200160002060009054906101000a900460010b60010b125b15611e4257600260036000600160009054906101000a900473ffffffffffffffffffffffffffffffffffffffff1673ffffffffffffffffffffffffffffffffffffffff16638ac8916c866000604051602001526040518263ffffffff167c0100000000000000000000000000000000000000000000000000000000028152600401808263ffffffff1663ffffffff168152602001915050602060405180830381600087803b1515611dba57600080fd5b6102c65a03f11515611dcb57600080fd5b5050506040518051905073ffffffffffffffffffffffffffffffffffffffff1673ffffffffffffffffffffffffffffffffffffffff16815260200190815260200160002060006005840160ff1660ff16815260200190815260200160002060006101000a81548160ff021916908360ff1602179055505b612328600460008463ffffffff1663ffffffff16815260200190815260200160002060008360ff1660ff16815260200190815260200160002060009054906101000a900460010b60010b121515611fc5576003806000600160009054906101000a900473ffffffffffffffffffffffffffffffffffffffff1673ffffffffffffffffffffffffffffffffffffffff16638ac8916c866000604051602001526040518263ffffffff167c0100000000000000000000000000000000000000000000000000000000028152600401808263ffffffff1663ffffffff168152602001915050602060405180830381600087803b1515611f3d57600080fd5b6102c65a03f11515611f4e57600080fd5b5050506040518051905073ffffffffffffffffffffffffffffffffffffffff1673ffffffffffffffffffffffffffffffffffffffff16815260200190815260200160002060006005840160ff1660ff16815260200190815260200160002060006101000a81548160ff021916908360ff1602179055505b6000600460008463ffffffff1663ffffffff16815260200190815260200160002060008360ff1660ff16815260200190815260200160002060006101000a81548161ffff021916908360010b61ffff160217905550808060010191505061193c565b5050565b8060046000600160009054906101000a900473ffffffffffffffffffffffffffffffffffffffff1673ffffffffffffffffffffffffffffffffffffffff166362f6b0ec866000604051602001526040518263ffffffff167c0100000000000000000000000000000000000000000000000000000000028152600401808273ffffffffffffffffffffffffffffffffffffffff1673ffffffffffffffffffffffffffffffffffffffff168152602001915050602060405180830381600087803b15156120f557600080fd5b6102c65a03f1151561210657600080fd5b5050506040518051905063ffffffff1663ffffffff1681526020019081526020016000206000600160009054906101000a900473ffffffffffffffffffffffffffffffffffffffff1673ffffffffffffffffffffffffffffffffffffffff16633befa275866000604051602001526040518263ffffffff167c0100000000000000000000000000000000000000000000000000000000028152600401808273ffffffffffffffffffffffffffffffffffffffff1673ffffffffffffffffffffffffffffffffffffffff168152602001915050602060405180830381600087803b15156121f157600080fd5b6102c65a03f1151561220257600080fd5b5050506040518051905060ff1660ff16815260200190815260200160002060008282829054906101000a900460010b0392506101000a81548161ffff021916908360010b61ffff1602179055505050565b600060056000600160009054906101000a900473ffffffffffffffffffffffffffffffffffffffff1673ffffffffffffffffffffffffffffffffffffffff166362f6b0ec856000604051602001526040518263ffffffff167c0100000000000000000000000000000000000000000000000000000000028152600401808273ffffffffffffffffffffffffffffffffffffffff1673ffffffffffffffffffffffffffffffffffffffff168152602001915050602060405180830381600087803b151561231e57600080fd5b6102c65a03f1151561232f57600080fd5b5050506040518051905063ffffffff1663ffffffff16815260200190815260200160002060009054906101000a900460010b90509190505600a165627a7a72305820b1c4e722957630c49d8674590614baaaf4fa3dc32ceaec8e1eecb732318473fe0029",
  "source": "pragma solidity ^0.4.11;\r\n\r\nimport './mortal.sol';\r\n\r\n//Agents, DNO,TNOs mapping\r\ncontract OliDetail is mortal{\r\n  \r\n    mapping (address => Details) OliAddressMapping;\r\n    mapping (uint32 => address) GSO;\r\n\r\n\r\n    event newAddedOli(address paymentAddress, uint32 latOfLocation, uint32 longOfLocation);\r\n    \r\n    struct Details {\r\n        uint32 latitude;\r\n        uint32 longitude;\r\n        uint32 trafoid;\r\n        uint8 ckt; //In case of Prosumers' ckt rep. --> 1st ckt:0; 2nd ckt:1; In case of Trafo 4branches --> 4 ckt\r\n        uint8 _type; //0:PV, 1:Wind, 2:CCP, 3:CHP, 4:Coal, 5:battery+, 6: battery-, 7:Consumer, 8:DNO\r\n        uint16[] _pload; // if _type=8 then index:0->trafoload\r\n    }\r\n\r\n    function addOli(address oli, uint32 lat, uint32 long, uint32 trafo, uint8 ckt, uint8 typex, uint16[] pload) onlyowner{\r\n        OliAddressMapping[oli] = Details(lat, long, trafo, ckt, typex, pload);\r\n        newAddedOli(oli, lat, long);\r\n        if (typex==8){\r\n            GSO[trafo]=oli;\r\n        }\r\n    }\r\n\r\n    //Oli types passing to Daughter Auction\r\n    function get_oliType(address _account) constant returns (uint8) {\r\n        return OliAddressMapping[_account]._type;\r\n    }\r\n    //Oli amount passing to Daughter Auction\r\n    function get_oliPeakLoad(address _account, uint8 _index) constant returns (uint16) {\r\n        return OliAddressMapping[_account]._pload[_index];\r\n    }\r\n\r\n    function get_oliCkt(address _account) constant returns (uint8) {\r\n        return OliAddressMapping[_account].ckt;\r\n    }\r\n\r\n    function get_oliTrafoid(address _account) constant returns (uint32) {\r\n        return OliAddressMapping[_account].trafoid;\r\n    }\r\n    function get_gsoAddr(uint32 _tid) constant returns (address) {\r\n        return GSO[_tid];\r\n    }\r\n    \r\n}\r\n\r\ncontract OliCoin is mortal{\r\n    //Energy Balance Mapping\r\n    mapping (address => int32) OliCoinBalance; //Produce->inc & Consume->dec\r\n    \r\n    mapping (address =>bool) ContractAddress;\r\n    \r\n    // Triggered when tokens are transferred.\r\n    event Transfer(address indexed _from, address indexed _to, uint16 _value);\r\n\r\n    //set contract access\r\n    function set_ContractAddress(address _contract, bool _tf) onlyowner{\r\n        ContractAddress[_contract] = _tf;\r\n    }\r\n\r\n    modifier onlyvalidcontract() {\r\n        require(ContractAddress[msg.sender]);\r\n        _;\r\n    }\r\n\r\n    //Update CoinBalance\r\n    function set_OliCoinBalance(address _account, int32 _change) onlyvalidcontract {\r\n        OliCoinBalance[_account] += _change;\r\n    }\r\n    //Delete CoinBalance\r\n    function del_Coinbalance() {\r\n        OliCoinBalance[msg.sender] = 0;\r\n    }\r\n    \r\n    // Transfer the balance from owner's account to another account\r\n    function transfer(address _to, uint16 _amount) returns (bool success) {\r\n        if (OliCoinBalance[msg.sender] > 0\r\n        && uint32(OliCoinBalance[msg.sender]) >= _amount\r\n        && _amount > 0\r\n        && uint32(OliCoinBalance[_to]) + _amount > uint32(OliCoinBalance[_to])) {\r\n            OliCoinBalance[msg.sender] -= int32(_amount);\r\n            OliCoinBalance[_to] += int32(_amount);\r\n            Transfer(msg.sender, _to, _amount);\r\n            return true;\r\n        }\r\n        else {\r\n            return false;\r\n        }\r\n    }\r\n    //\r\n    function get_coinBalance(address caddress) constant returns (int32) {\r\n        return OliCoinBalance[caddress];\r\n    }\r\n}\r\n\r\ncontract ParentAuction is mortal{\r\n    //Account Details Callback function\r\n    OliDetail origin;\r\n    function setOliOrigin(address addr) { origin = OliDetail(addr); }\r\n    //Earn OliCoins\r\n    OliCoin coin;\r\n    function setOliCoin(address addr) { coin = OliCoin(addr); }\r\n    //Bids passing to parent auction\r\n    //ParentAuction auction;\r\n    //function setParentAddress(address addr) { auction = ParentAuction(addr); }\r\n    //gridFee\r\n    DynamicGridFee dgfee;\r\n    function setDynamicGridFee(address addr) { dgfee = DynamicGridFee(addr); }\r\n\r\n    //uint32 tid;\r\n    mapping (uint32 => bool) tid;\r\n    \r\n    //set conntected transformer\r\n    function set_ContractAddress(uint32 _tid, bool _tf) onlyowner{\r\n        tid[_tid] = _tf;\r\n    }\r\n\r\n    address[] _producer;    address[] _consumer;\r\n    \r\n    struct Details {\r\n        uint8 rate; // cents/KW\r\n        uint16 amount; // Kw\r\n    }\r\n    //Bidders Mapping\r\n    mapping (address => Details) GenBid;\r\n    mapping (address => Details) ConsBid;\r\n    mapping (uint8 => uint16) SRate;\r\n    mapping (uint8 => uint16) DRate;\r\n    uint8 public maxRate;  uint8 minRate=10;\r\n    //Bidders event recording\r\n    event NewGenBid(address indexed gaddr, uint8 grate, uint16 gamount);\r\n    event NewConBid(address indexed caddr, uint8 crate, uint16 camount);\r\n    //New mcp\r\n    event NewMcp(uint8 cbid);\r\n\r\n    function bid(uint16 _amount, uint8 _rate) {\r\n        //Mapping Producer's bidding\r\n        if ((origin.get_oliType(msg.sender)>=uint8(0))&&(origin.get_oliType(msg.sender)<=uint8(5))&&(_amount>uint16(0))&&(tid[origin.get_oliTrafoid(tx.origin)])) {\r\n            GenBid[msg.sender] = Details (_rate, _amount); \r\n            if (_rate > maxRate) {\r\n                maxRate = _rate;\r\n            }\r\n            if (_rate < minRate) {\r\n                minRate = _rate;\r\n            }\r\n            SRate[_rate] += _amount;\r\n            NewGenBid (msg.sender,_rate, _amount);\r\n            _producer.push(msg.sender);\r\n        }\r\n        //Mapping Consumer's bidding\r\n        if ((origin.get_oliType(msg.sender) > uint8(5))&&(origin.get_oliType(msg.sender) <= uint8(7))&&(_amount>uint16(0))&&(tid[origin.get_oliTrafoid(tx.origin)])) {\r\n            ConsBid[msg.sender] = Details (_rate,_amount);\r\n            if (_rate > maxRate) {\r\n                maxRate = _rate;\r\n            }\r\n            if (_rate < minRate) {\r\n                minRate = _rate;\r\n            }\r\n            DRate[_rate] += _amount;\r\n            NewConBid (msg.sender, _rate, _amount);\r\n            _consumer.push(msg.sender);\r\n        }\r\n    }\r\n\r\n    //Calculating MCP\r\n    function breakEven() {\r\n        //Supply/Demand Curve Plotting\r\n        uint8 _max = maxRate;\r\n        for (var y=1;y<=maxRate;y++) {\r\n            SRate[y] += SRate[y-1];\r\n            DRate[_max-1] += DRate[_max];\r\n            _max--;\r\n        }\r\n\r\n        //Break-Even Finder\r\n        for (var v = 0; v <= maxRate; v++) {\r\n            if (SRate[v] >= DRate[v]) {\r\n                if (DRate[v] > SRate[v-1]) {\r\n                    NewMcp(v);\r\n                }\r\n                else {\r\n                    NewMcp(v-1);\r\n                    v--;\r\n                }\r\n                //Losers/Winners Mapping also add bool T/F, about winner/loser\r\n                for (var q = 0; q < _producer.length; q++){\r\n                    if(GenBid[_producer[q]].rate <= v) {\r\n                        //Reward=rate-gFee\r\n                        coin.set_OliCoinBalance(_producer[q], int32(((GenBid[_producer[q]].rate-dgfee.get_dGFee(_producer[q])) * GenBid[_producer[q]].amount)));\r\n                        //GSO reward\r\n                        coin.set_OliCoinBalance(origin.get_gsoAddr(origin.get_oliTrafoid(_producer[q])), int32(dgfee.get_dGFee(_producer[q])*GenBid[_producer[q]].amount));\r\n                        dgfee.set_trafocamount(_producer[q], GenBid[_producer[q]].amount);\r\n                    }\r\n                }\r\n                for (var r = 0; r < _consumer.length; r++){\r\n                    if(ConsBid[_consumer[r]].rate >= v) {\r\n                        //Payable=rate+gfee\r\n                        coin.set_OliCoinBalance(_consumer[r], -int32(((ConsBid[_consumer[r]].rate+dgfee.get_dGFee(_consumer[r])) * ConsBid[_consumer[r]].amount)));\r\n                        //GSO Reward\r\n                        coin.set_OliCoinBalance(origin.get_gsoAddr(origin.get_oliTrafoid(_consumer[r])), int32(dgfee.get_dGFee(_consumer[r])*GenBid[_consumer[r]].amount));\r\n                        dgfee.set_traforamount(_consumer[r], GenBid[_consumer[r]].amount);\r\n                    }\r\n                }\r\n            break;\r\n            }\r\n        }\r\n    }\r\n\r\n    //reset\r\n    function resett() {\r\n        delete _producer;\r\n        delete _consumer;\r\n        for (var w=0;w<maxRate;w++) {\r\n            SRate[w]=0;\r\n            DRate[w]=0;\r\n        }\r\n        maxRate=10;\r\n        minRate=10;\r\n        dgfee.set_tgridFee(67376);\r\n        dgfee.set_tgridFee(67377);\r\n    }\r\n\r\n    function get_producer() constant returns (address[]) {\r\n        return _producer;\r\n    }\r\n    function get_consumer() constant returns (address[]) {\r\n        return _consumer;\r\n    }\r\n\r\n    function get_sRate(uint8 _rate) constant returns (uint16) {\r\n        return SRate[_rate];\r\n    }\r\n\r\n    function get_dRate(uint8 _rate) constant returns (uint16) {\r\n        return DRate[_rate];\r\n    }\r\n\r\n\r\n}\r\n\r\ncontract DaughterAuction is mortal{\r\n    //Account Details Callback function\r\n    OliDetail origin;\r\n    function setOliOrigin(address addr) { origin = OliDetail(addr); }\r\n    //Earn OliCoins\r\n    OliCoin coin;\r\n    function setOliCoin(address addr) { coin = OliCoin(addr); }\r\n    //Bids passing to parent auction\r\n    //ParentAuction auction;\r\n    //function setParentAddress(address addr) { auction = ParentAuction(addr); }\r\n    //gridFee\r\n    DynamicGridFee dgfee;\r\n    function setDynamicGridFee(address addr) { dgfee = DynamicGridFee(addr); }\r\n\r\n    uint32 tid;\r\n    \r\n    function DaughterAuction() {\r\n        tid=67376;\r\n    }\r\n\r\n    address[] _producer;    address[] _consumer;\r\n    \r\n    struct Details {\r\n        uint8 rate; // cents/KW\r\n        uint16 amount; // Kw\r\n    }\r\n    //Bidders Mapping\r\n    mapping (address => Details) GenBid;\r\n    mapping (address => Details) ConsBid;\r\n    uint16 diff;\r\n    mapping (uint8 => uint16) SRate;\r\n    mapping (uint8 => uint16) DRate;\r\n    uint8 public maxRate;  uint8 minRate=10;\r\n    //Bidders event recording\r\n    event NewGenBid(address indexed gaddr, uint8 grate, uint16 gamount);\r\n    event NewConBid(address indexed caddr, uint8 crate, uint16 camount);\r\n    //New mcp\r\n    event NewMcp(uint8 cbid);\r\n\r\n    function bid(uint16 _amount, uint8 _rate) {\r\n        //Subtracting bilateral traded amount if any\r\n        //if((btrade.get_stockAmount(msg.sender) > uint16(0))&&(_amount > btrade.get_stockAmount(msg.sender))) {_amount = _amount - btrade.get_stockAmount(msg.sender);}\r\n        //Mapping Producer's bidding\r\n        //\r\n        if ((origin.get_oliType(msg.sender)>=uint8(0))&&(origin.get_oliType(msg.sender)<=uint8(5))&&(_amount>uint16(0))&&(tid==(origin.get_oliTrafoid(tx.origin)))) {\r\n            GenBid[msg.sender] = Details (_rate, _amount); \r\n            if (_rate > maxRate) {\r\n                maxRate = _rate;\r\n            }\r\n            if (_rate < minRate) {\r\n                minRate = _rate;\r\n            }\r\n            SRate[_rate] += _amount;\r\n            NewGenBid (msg.sender,_rate, _amount);\r\n            _producer.push(msg.sender);\r\n            /*if(btrade.get_stockAmount(msg.sender) > uint16(0)) {\r\n                coin.set_OliCoinBalance(msg.sender, int32((btrade.get_stockRate(msg.sender) * btrade.get_stockAmount(msg.sender))));\r\n            }*/\r\n        }\r\n        //Mapping Consumer's bidding\r\n        if ((origin.get_oliType(msg.sender) > uint8(5))&&(origin.get_oliType(msg.sender) <= uint8(7))&&(_amount>uint16(0))&&(tid==(origin.get_oliTrafoid(tx.origin)))) {\r\n            ConsBid[msg.sender] = Details (_rate,_amount);\r\n            if (_rate > maxRate) {\r\n                maxRate = _rate;\r\n            }\r\n            if (_rate < minRate) {\r\n                minRate = _rate;\r\n            }\r\n            DRate[_rate] += _amount;\r\n            NewConBid (msg.sender, _rate, _amount);\r\n            _consumer.push(msg.sender);\r\n            /*\r\n            if(btrade.get_stockAmount(msg.sender) > uint16(0)) {\r\n                coin.set_OliCoinBalance(msg.sender, -int32((btrade.get_stockRate(msg.sender) * btrade.get_stockAmount(msg.sender))));\r\n            }*/\r\n        }\r\n    }\r\n\r\n    //Calculating MCP\r\n    function breakEven() {\r\n        //Supply/Demand Curve Plotting\r\n        uint8 _max = maxRate;\r\n        for (var y=1;y<=maxRate;y++) {\r\n            SRate[y] += SRate[y-1];\r\n            DRate[_max-1] += DRate[_max];\r\n            _max--;\r\n        }\r\n\r\n        //Break-Even Finder\r\n        for (var v = 0; v <= maxRate; v++) {\r\n            if (SRate[v] >= DRate[v]) {\r\n                if (DRate[v] > SRate[v-1]) {\r\n                    NewMcp(v);\r\n                    diff = uint16(DRate[v] - SRate[v]);\r\n                }\r\n                else {\r\n                    NewMcp(v-1);\r\n                    diff = uint16(DRate[v-1] - SRate[v-1]);\r\n                    v--;\r\n                }\r\n                //Losers/Winners Mapping also add bool T/F, about winner/loser\r\n                for (var q = 0; q < _producer.length; q++){\r\n                    if(GenBid[_producer[q]].rate < v) {\r\n                        //Reward=rate-gFee\r\n                        coin.set_OliCoinBalance(_producer[q], int32(((GenBid[_producer[q]].rate-dgfee.get_dGFee(_producer[q])) * GenBid[_producer[q]].amount)));\r\n                        //GSO reward\r\n                        coin.set_OliCoinBalance(origin.get_gsoAddr(origin.get_oliTrafoid(_producer[q])), int32(dgfee.get_dGFee(_producer[q])*GenBid[_producer[q]].amount));\r\n                        dgfee.set_cktcamount(_producer[q], GenBid[_producer[q]].amount);\r\n                    }\r\n                    if(GenBid[_producer[q]].rate == v) {\r\n                        //Reward=rate-gFee\r\n                        coin.set_OliCoinBalance(_producer[q], int32(((GenBid[_producer[q]].rate-dgfee.get_dGFee(_producer[q])) * diff)));\r\n                        //GSO reward\r\n                        coin.set_OliCoinBalance(origin.get_gsoAddr(origin.get_oliTrafoid(_producer[q])), int32(dgfee.get_dGFee(_producer[q])*diff));\r\n                        dgfee.set_cktcamount(_producer[q], diff);\r\n                    }\r\n                }\r\n                for (var r = 0; r < _consumer.length; r++){\r\n                    if(ConsBid[_consumer[r]].rate > v) {\r\n                        //Payable=rate+gfee\r\n                        coin.set_OliCoinBalance(_consumer[r], -int32(((ConsBid[_consumer[r]].rate+dgfee.get_dGFee(_consumer[r])) * ConsBid[_consumer[r]].amount)));\r\n                        //GSO Reward\r\n                        coin.set_OliCoinBalance(origin.get_gsoAddr(origin.get_oliTrafoid(_consumer[r])), int32(dgfee.get_dGFee(_consumer[r])*GenBid[_consumer[r]].amount));\r\n                        dgfee.set_cktramount(_consumer[r], GenBid[_consumer[r]].amount);\r\n                    }\r\n                    if(ConsBid[_consumer[r]].rate == v) {\r\n                        //Payable=rate+gfee\r\n                        coin.set_OliCoinBalance(_consumer[r], -int32(((ConsBid[_consumer[r]].rate+dgfee.get_dGFee(_consumer[r])) * diff)));\r\n                        //GSO Reward\r\n                        coin.set_OliCoinBalance(origin.get_gsoAddr(origin.get_oliTrafoid(_consumer[r])), int32(dgfee.get_dGFee(_consumer[r])*diff));\r\n                        dgfee.set_cktramount(_consumer[r], diff);\r\n                    }\r\n                }\r\n            break;\r\n            }\r\n        }\r\n    }\r\n\r\n    //reset\r\n    function resett() {\r\n        delete _producer;\r\n        delete _consumer;\r\n        for (var w=0;w<maxRate;w++) {\r\n            SRate[w]=0;\r\n            DRate[w]=0;\r\n        }\r\n        maxRate=10;\r\n        minRate=10;\r\n        dgfee.set_dgridFee(origin.get_oliTrafoid(tx.origin));\r\n    }\r\n\r\n    function get_producer() constant returns (address[]) {\r\n        return _producer;\r\n    }\r\n    function get_consumer() constant returns (address[]) {\r\n        return _consumer;\r\n    }\r\n\r\n    function get_sRate(uint8 _rate) constant returns (uint16) {\r\n        return SRate[_rate];\r\n    }\r\n\r\n    function get_dRate(uint8 _rate) constant returns (uint16) {\r\n        return DRate[_rate];\r\n    }\r\n\r\n\r\n}\r\n\r\ncontract BilateralTrading is mortal{\r\n    //Account Details Callback function\r\n    OliDetail origin;\r\n    function setOliOrigin(address addr) { origin = OliDetail(addr); }\r\n    //Earn OliCoins\r\n    OliCoin coin;\r\n    function setOliCoin(address addr) { coin = OliCoin(addr); }\r\n    // Set to true at the end, disallows any change\r\n    //gridFee\r\n    DynamicGridFee dgfee;\r\n    function setDynamicGridFee(address addr) { dgfee = DynamicGridFee(addr); }\r\n\r\n    struct Details {\r\n        uint16 amount;\r\n        uint8 minMaxRate;\r\n        uint32 contractPeriod; //in seconds\r\n        uint32 biddingTime;\r\n        uint32 currentTime;\r\n        address higestBidder;\r\n    }\r\n    //Mapping Available Stock\r\n    mapping (address => Details) availStock;\r\n    //Event fired on new available Stock\r\n    event NewStock(address saccount, uint16 samount, uint8 smrate, uint32 speriod, uint32 sbiddingTime);\r\n    //Event fired on inceasing bid\r\n    event NewStockBid(address baccount, uint8 bmrate);\r\n    //Event fired on Bilateral Trade\r\n    event BiTrade(address bprod, address bcons, uint16 bamount, uint8 brate);\r\n    \r\n    modifier validRequirement(uint16 oliAmount) {\r\n        if (oliAmount > origin.get_oliPeakLoad(msg.sender,0))\r\n            throw;\r\n        _;\r\n    }\r\n    //Registeration of Bilateral Stock\r\n    function regStock (uint16 _amount, uint8 _rate, uint32 _period, uint32 _btime) validRequirement(_amount) {\r\n        availStock[msg.sender] = Details(_amount, _rate, (uint32(now)+_period), _btime, uint32(now), msg.sender);\r\n        NewStock(msg.sender, _amount, _rate, (uint32(now)+_period), _btime);\r\n    }\r\n    function stockBidding(address _stock, uint8 _rate) {\r\n        require(origin.get_oliTrafoid(_stock) == (origin.get_oliTrafoid(msg.sender)));\r\n        require(now <= (availStock[_stock].currentTime + availStock[_stock].biddingTime));\r\n        if (((origin.get_oliType(_stock)>=0)&&(origin.get_oliType(_stock)<=5))) {\r\n            require(_rate > availStock[_stock].minMaxRate);\r\n            availStock[_stock].minMaxRate = _rate;\r\n            availStock[_stock].higestBidder = msg.sender;\r\n            NewStockBid(_stock, _rate);\r\n        }\r\n        if (((origin.get_oliType(_stock)>=6)&&(origin.get_oliType(_stock)<=7))) {\r\n            require(_rate < availStock[_stock].minMaxRate);\r\n            availStock[_stock].minMaxRate = _rate;\r\n            availStock[_stock].higestBidder = msg.sender;\r\n            NewStockBid(_stock, _rate);\r\n        }\r\n    }\r\n    \r\n    function biTrade() {\r\n        require(availStock[msg.sender].amount > 0);\r\n        require(uint32(now) <= (availStock[msg.sender].contractPeriod));\r\n        BiTrade(msg.sender,availStock[msg.sender].higestBidder,availStock[msg.sender].amount,availStock[msg.sender].minMaxRate);\r\n        //producer coins\r\n        coin.set_OliCoinBalance(msg.sender, int32(availStock[msg.sender].amount*(availStock[msg.sender].minMaxRate-dgfee.get_dGFee(msg.sender))));\r\n        //consumer coins\r\n        coin.set_OliCoinBalance(availStock[msg.sender].higestBidder, -int32(availStock[msg.sender].amount*(availStock[msg.sender].minMaxRate+dgfee.get_dGFee(msg.sender))));\r\n        //GSO reward\r\n        coin.set_OliCoinBalance(origin.get_gsoAddr(origin.get_oliTrafoid(msg.sender)), int32(2*dgfee.get_dGFee(msg.sender)*availStock[msg.sender].amount));\r\n\r\n    }\r\n    function get_stockBidder(address _stock) constant returns (address) {\r\n        return availStock[_stock].higestBidder;\r\n    }\r\n    function get_stockAmount(address _stock) constant returns (uint16) {\r\n        return availStock[_stock].amount;\r\n    }\r\n    function get_stockRate(address _stock) constant returns (uint8) {\r\n        return availStock[_stock].minMaxRate;\r\n    }\r\n}\r\n\r\ncontract DynamicGridFee is mortal{\r\n    //Account Details Callback function\r\n    OliDetail origin;\r\n    function setOliOrigin(address addr) { origin = OliDetail(addr); }\r\n    \r\n    //should have floor and ceiling grid fee and also basd on percentage loading.\r\n    //local grid fee based on ckt its loading.\r\n    //transmission grid fee based on trafo loading.\r\n    \r\n    //cktload\r\n    uint8 cktLoad;\r\n    \r\n    //trafoload\r\n    mapping (uint32 => uint8) trafoLoad;\r\n    \r\n    //gridFee\r\n    mapping (address => mapping(uint8 => uint8)) gridFee; //address:GSO | index-> 0:min trafoload Fee; 1:max trafoload Fee; 2:min cktload Fee; 3:max cktload Fee; 4:tFee 5:dFee\r\n\r\n    mapping (uint32 => mapping(uint8=>int16)) cktamount; //trafoid -> ckt(+:prod;-:cons)\r\n\r\n    mapping (uint32 => int16) trafoamount; //(+:prod;-:cons)\r\n\r\n    //Set Min/Max Grid Fee\r\n    function set_minmaxgfee(address _address, uint8[] _fee) onlyowner {\r\n        for(var a=0;a<_fee.length;a++){\r\n            gridFee[_address][a] = _fee[a];\r\n        }\r\n    }\r\n    function set_cktcamount(address _addr, uint16 _amount) { \r\n        cktamount[origin.get_oliTrafoid(_addr)][origin.get_oliCkt(_addr)] += int16(_amount);\r\n    }\r\n    function set_cktramount(address _addr, uint64 _amount) {\r\n        cktamount[origin.get_oliTrafoid(_addr)][origin.get_oliCkt(_addr)] -= int16(_amount);\r\n    }\r\n    function set_dgridFee(uint32 _tid) {\r\n        for(var b=0; b<origin.get_oliCkt(origin.get_gsoAddr(_tid)); b++) {\r\n            //cktLoad = uint8(((uint16(cktamount[_tid][b]))*100)/origin.get_oliPeakLoad(origin.get_gsoAddr(_tid), (b+1)));\r\n            if (cktamount[_tid][b]<=3500){\r\n                gridFee[origin.get_gsoAddr(_tid)][b+5] = 1;\r\n            }\r\n            if ((cktamount[_tid][b]>3500) && (cktamount[_tid][b]<9000) ) {\r\n                gridFee[origin.get_gsoAddr(_tid)][b+5] = 2;\r\n            }\r\n            if (cktamount[_tid][b]>=9000) {\r\n                gridFee[origin.get_gsoAddr(_tid)][b+5] = 3;\r\n            }\r\n            cktamount[_tid][b] = 0;\r\n        }\r\n    }\r\n    function set_trafocamount(address _addr, uint16 _amount){\r\n        trafoamount[origin.get_oliTrafoid(_addr)] += int16(_amount);\r\n    }\r\n    function set_traforamount(address _addr, uint16 _amount){\r\n        trafoamount[origin.get_oliTrafoid(_addr)] -= int16(_amount);\r\n    }\r\n    function set_tgridFee(uint32 _tid) {\r\n        trafoLoad[_tid] = uint8(( uint16(trafoamount[_tid]) * uint16(100) ) / get_trafoPeakLoad(_tid) );\r\n        if(trafoamount[_tid] <=1750){\r\n            gridFee[origin.get_gsoAddr(_tid)][4] = 4;\r\n        }\r\n        if( (trafoamount[_tid] > 1750) && (trafoamount[_tid] < 4500) ){\r\n            gridFee[origin.get_gsoAddr(_tid)][4] = 5;\r\n        }\r\n        if(trafoamount[_tid] >= 4500){\r\n            gridFee[origin.get_gsoAddr(_tid)][4] = 6;\r\n        }\r\n        trafoamount[_tid] = 0;\r\n\r\n/*\r\n        if(trafoLoad[_tid] <=35){\r\n            gridFee[origin.get_gsoAddr(_tid)][4] = 4;\r\n        }\r\n        if( (trafoLoad[_tid] > 35) && (trafoLoad[_tid] < 90) ){\r\n            gridFee[origin.get_gsoAddr(_tid)][4] = 5;\r\n        }\r\n        if(trafoLoad[_tid] >= 90){\r\n            gridFee[origin.get_gsoAddr(_tid)][4] = 6;\r\n        }\r\n        trafoamount[_tid] = 0;\r\n*/\r\n    }\r\n    function get_trafoPeakLoad(uint32 _tid) constant returns(uint16) {\r\n        return origin.get_oliPeakLoad(origin.get_gsoAddr(_tid),0);\r\n    }\r\n    function get_trafoAmount(address _addr) constant returns(int16) {\r\n        return trafoamount[origin.get_oliTrafoid(_addr)];\r\n    }\r\n    function get_trafoLoad(uint32 _tid) constant returns(uint8) {\r\n        return trafoLoad[_tid];\r\n    }\r\n\r\n    function get_dGFee(address _addr) constant returns (uint8) {\r\n        return gridFee[origin.get_gsoAddr(origin.get_oliTrafoid(_addr))][origin.get_oliCkt(_addr)+5];\r\n    }\r\n    function get_tGFee(address _addr) constant returns (uint8) {\r\n        return gridFee[origin.get_gsoAddr(origin.get_oliTrafoid(_addr))][4];\r\n    }\r\n    function get_gridFee(uint32 _tid, uint8 _index) constant returns (uint8) {\r\n            return gridFee[origin.get_gsoAddr(_tid)][_index];\r\n    }\r\n    function get_cktAmount(uint32 _tid, uint8 _index) constant returns (int16) {\r\n            return cktamount[_tid][_index];\r\n    }\r\n    \r\n}\r\n",
  "sourcePath": "D:\\OLIContracts3\\contracts\\OliEnergyTrading.sol",
  "compiler": {
    "name": "solc",
    "version": "0.4.19+commit.c4cbbb05.Emscripten.clang"
  },
  "schemaVersion": "2.0.0",
  "updatedAt": "2018-03-26T12:00:17.235Z"
}